:100000000C942A000C9486000C949E000C943C00E6
:100010000C943C000C943C000C944C000C943C0060
:100020000C943C000C943C000C943C000C943C0060
:100030000C943C000C943C000C943C000C943C0050
:100040000C943C000C943C000C94B2000C943C00CA
:100050000C943C0011241FBECFE5D4E0DEBFCDBF21
:1000600010E0A0E6B0E001C01D92A336B107E1F7B1
:100070000E94C1000C9457010C9400008CE08FBDCD
:100080008EB58B608EBD1DBC1CBC89E09DE39BBD05
:100090008ABD80E189BF08951F920F920FB60F921B
:1000A00011248F93809160008F5F809360008C3368
:1000B00039F410926000809161008F5F809361003D
:1000C000809161008C3349F41092610010926000BD
:1000D000809162008F5F80936200809162008C301B
:1000E00031F41092600010926100109262008F91C2
:1000F0000F900FBE0F901F90189585B7826085BF37
:100100008BB780648BBF8A98929A08951F920F9242
:100110000FB60F921124109260001092610010929D
:1001200062000F900FBE0F901F9018958B9885B7A7
:100130008C6085BF8BB780688BBF08951F920F922C
:100140000FB60F92112413BE0F900FBE0F901F9089
:100150001895BA98929A84B78F7B84BF8BB78062C8
:100160008BBF08951F920F920FB60F9211248F9399
:1001700083B7826083BF8F910F900FBE0F901F9047
:10018000189584B38F6084BB85B3807F85BB8AB3A9
:100190008F638ABB85B38F6385BB8FB780688FBF42
:1001A0000E9496000E94A9000E943E0020916000DB
:1001B000822F6AE00E944B01B92F822F0E944B01CF
:1001C000A82FAF7020916100822F0E944B01F92F60
:1001D000FF70822F0E944B01E82FEF702091620088
:1001E000822F0E944B01592F5F70822F0E944B017A
:1001F000482F4F7024EF31E08BB390E0811191E0F4
:1002000090629BBB85B3807F8B2B85BBC901019717
:10021000F1F78BB390E0811191E090619BBB85B3C6
:10022000807F8A2B85BBC9010197F1F78BB390E0E2
:10023000811191E098609BBB85B3807F8F2B85BB3C
:10024000C9010197F1F78BB390E0811191E09460BF
:100250009BBB85B3807F8E2B85BBC9010197F1F7CE
:100260008BB390E0811191E092609BBB85B3807F5E
:10027000852B85BBC9010197F1F78BB390E0811104
:1002800091E091609BBB85B3807F842B85BBC901C6
:100290000197F1F7B1CF991B79E004C0991F961728
:1002A00008F0961B881F7A95C9F780950895F894F1
:0202B000FFCF7E
:00000001FF
